:1000000010C017C016C015C014C013C012C011C054
:1000100010C00FC00EC00DC00CC00BC00AC009C07C
:1000200008C011241FBECFE5D2E0DEBFCDBF27D070
:1000300051C0E6CF9FEF9ABB399A6BBB75BB39981D
:100040008BBB969885E38A95F1F70000969A089500
:100050002FEF2ABB399A8BBB95BB39981ABA85E327
:100060008A95F1F70000979895E39A95F1F70000CB
:1000700089B3979A95E39A95F1F7000008958FEF69
:1000800086B981BB8ABB84BB87BB17B81BBA15BABC
:1000900018BA80EC82BB60E070E180EFCBDF81E0DA
:1000A00090E1D6DF2FE73CE981E0215030408040ED
:1000B000E1F700C0000082E090E1CADF9FE72CE991
:1000C00031E0915020403040E1F700C0000061E095
:0800D00070E1E4CFF894FFCFCA
:00000001FF
